:100000000C9404020C9423020C9423020C942302FB
:100010000C9423020C9423020C9423020C942302CC
:100020000C9423020C9423020C9423020C942302BC
:100030000C9423020C94F6680C9423020C94230273
:100040000C9423020C9423020C9423020C9423029C
:100050000C9423020C94C81E0C9423020C942302CB
:100060000C9423020C94381F0C9423020C9423024A
:100070000C9423020C9423020C9423020C9423026C
:100080000C9455680C9423020C9423020C942302C4
:100090000C94671F0C9423020C9423020C942302EB
:1000A0000C9423020C9423020C9423020C9423023C
:1000B0000C9423020C9423020C9423020C9423022C
:1000C0000C9423020C9423020C9423020C9423021C
:1000D0000C9423020C9423020C9423020C9423020C
:1000E0000C9423020C94B3250C94BD250C94A925E3
:1000F0000C9469250C94E9250C94DF250C94D325E8
:100100000C94C7250C9423020C9423020C94230214
:100110000C9423020C9423020C9423020C942302CB
:10012000FC12FE12001302130413061308130A1321
:100130000C130E131E131E131E131E131E131E1359
:100140001E13101312131413161318131A131E135D
:100150001E131E131E131E131E131E131E131E1317
:100160001E131E131E131E131E131E131E131E1307
:100170001E131E131E131E131E131E131E131E13F7
:100180001E13101312131413161318131A13583ABC
:10019000773AF63AE53B053C253C2D3CDA3B0A0034
:1001A0004A6F696E6564206D756C74696361737400
:1001B0002067726F757020004552524F523A2025C9
:1001C000732829203A200044454255473A20257398
:1001D0002829203A20002578003A003A3A004E6556
:1001E0007665722D7573656420737461636B203E50
:1001F0002025642062797465730A000A2D2D2D2D47
:100200002D2D2D2D2D0A0020203C6E6F6E653E0099
:100210002920256C75730A002F25752028766961C1
:1002200020000A526F75746573205B2575206D611F
:10023000785D0A000A526F75746573205B2575201E
:100240006D61785D0A0020203C6E6F6E653E000A8D
:10025000000A4E65696768626F7273205B257520BE
:100260006D61785D0A000A000A4164647265737307
:100270006573205B2575206D61785D0A004F6E6C9B
:10028000696E650A00526F7574696E6720456E610C
:10029000626C65640A0052504C20456E61626C6568
:1002A000640A0025732025732C206368616E6E65D7
:1002B0006C202575202C20636865636B2072617447
:1002C0006520257520487A20747820706F776572D4
:1002D0002025750A004555492D3634204D41433AB5
:1002E0002025782D25782D25782D25782D25782DFC
:1002F00025782D25782D25780A0052616E646F6D62
:1003000020455549363420616464726573732067F3
:10031000656E6572617465640A000A2A2A2A2A2AAF
:100320002A2A426F6F74696E672025732A2A2A2A47
:100330002A2A2A0A00454550524F4D2069732063EE
:100340006F72727570742C20726577726974696E41
:100350006720776974682064656661756C74732EB4
:100360000A006C6F63616C686F73740041544D4593
:1003700047413132387266613100020000FFFE00F1
:100380000001452025642E256420636C6F636B207B
:10039000256C752063707520256C75206C706D2040
:1003A000256C752069727120256C7520676C6564F9
:1003B00020256C7520796C656420256C7520726C25
:1003C000656420256C7520747820256C75206C6917
:1003D0007374656E20256C752073656E736F727310
:1003E00020256C752073657269616C20256C750A17
:1003F000002578003A003A3A00284E554C4C2049E6
:10040000502061646472290011241FBECFEFD1E433
:10041000DEBFCDBF19E0A0E0B2E0E0EEF6EF00E015
:100420000BBF02C007900D92AA3BB107D9F724E396
:10043000AAEBB9E001C01D92AB36B207E1F70E940A
:10044000981C0C946E7B0C9400000F931F93CF9319
:10045000DF9300D0CDB7DEB78C01FC0180819181A4
:10046000009739F08797B1F1F8011182108283E08B
:1004700038C00E94CD1980E090E00E94BA181A821C
:10048000198240E050E0BE016E5F7F4F8091E52809
:100490009091E6280E946C1A8A818F5F8A8340E0DF
:1004A00050E0BE016F5F7F4F8091D7289091D82890
:1004B0000E94C81A89818F5F898360E075E08AEBAA
:1004C00099E00E94C42787E290E0F801918380833D
:1004D00081E007C08AEB99E00E94E227892B89F628
:1004E000F7CF0F900F90DF91CF911F910F9108954B
:1004F000EF92FF920F931F93CF93DF93FC01E09055
:100500001402F0901502E701C55BDF4F28812F70C0
:1005100086E090E0821B9109E70120E030E0281797
:1005200039070CF045C008811981D80159967C9192
:10053000269676133AC0309719F166E0629FC001A3
:10054000639F900D1124D701A80FB91F15966C91C8
:100550006F7070E07183608360919B2770919C271E
:1005600073836283A0911402B0911502A80FB91F82
:100570000D90BC91A02D59968C9190E09583848329
:1005800041155105B9F0E0911402F091150266E0B1
:10059000629FC001639F900D1124E80FF91F8081B5
:1005A0009181FA019183808305C02F5F3F4FB7CFC0
:1005B00081E001C080E0DF91CF911F910F91FF900A
:1005C000EF9008959F92AF92BF92CF92DF92EF92F9
:1005D000FF920F931F93CF93DF937C01EB0119825E
:1005E000188200E010E086E0A82EB12C96E0992E4B
:1005F0008091140290911502FC01E55BFF4F208170
:100600002F70A501421B5109041715070CF054C0A7
:10061000909E6001919ED00C1124FC01EC0DFD1DFB
:100620000190F081E02D608D818D0E94540A81112E
:1006300040C088819981989EF001999EF00D112407
:10064000EE0DFF1DA0911402B0911502AC0DBD1D61
:1006500015968C918F7090E0918380838881998129
:10066000989EF001999EF00D1124EE0DFF1D8091D2
:100670009B2790919C279383828388819981989E60
:10068000F001999EF00D1124EE0DFF1DA0911402B2
:10069000B0911502AC0DBD1D0D90BC91A02D5996C9
:1006A0008C9190E0958384838881998101969983C8
:1006B00088830F5F1F4F9CCF80E0DF91CF911F9108
:1006C0000F91FF90EF90DF90CF90BF90AF909F90F1
:1006D00008958091140290911502FC01E55BFF4F93
:1006E0002081207F2660208384960E946A0D80915D
:1006F000140290911502C1960E946A0D8091140215
:1007000090911502CE960E946A0D80E00895409166
:10071000140250911502FA01E55BFF4F60816F7082
:1007200089F126E030E0261B310966E0629FF00186
:10073000639FF00D1124E40FF51F91838083A09136
:100740001402B0911502A55BBF4F8C91962F981B98
:100750009F708581807F892B85838C919FE0980F86
:100760009F70807F892B8C9385818F70813019F4E5
:1007700084E690E004C0823041F484EF91E09383FA
:10078000828303C080E090E00895CF010895CF9266
:10079000DF92EF92FF920F931F93CF93DF931F92FD
:1007A000CDB7DEB78C0120E030E04DE0F42EE091D3
:1007B0001402F0911502F29EC001F39E900D1124D7
:1007C000E80FF91F61AD72ADC90101966C01011509
:1007D0001105D1F061157105B9F0C8010E942E17FD
:1007E000882391F02DE02C9DC0012D9D900D1124AA
:1007F0008496E0901402F0901502E80EF91E21E0B4
:10080000E114F10459F505C096012230310579F65D
:1008100020E0E0911402F091150286A9882349F0A6
:10082000DF01AD5BBF4F8C91811114C081E090E07E
:1008300002C080E090E001963DE0389F7001399F52
:10084000F00C112494E2E90EF11CEE0EFF1EE114EF
:10085000F10421F47F0184E2E80EF11CF7018581A7
:10086000811105C0C70129830E943E1129812111F0
:1008700003C0F70111870087C7010F90DF91CF9167
:100880001F910F91FF90EF90DF90CF900895CF933D
:10089000DF93EC010E94911188859985892B29F4B9
:1008A000CE010E945E0D80E006C0CE010E94A3161C
:1008B0008823B1F381E0DF91CF910895BF92CF9269
:1008C000DF92EF92FF920F931F93CF93DF936B0111
:1008D000FC0100811181F801B08CE080F180C7013A
:1008E0000E94C703EC01F986E8868C858B1529F0F8
:1008F0006B2DCE010E949A11BC868A859B8580173C
:10090000910739F0F801618DCE010E940A121B8710
:100910000A87F80163817481A601CE010E946912E1
:10092000811125C0F801818D1F928F93808D1F92B8
:100930008F938BE093E09F938F9387E493E09F9353
:100940008F930E94BF188DB79EB708960FB6F89484
:100950009EBF0FBE8DBFCE01DF91CF911F910F9132
:10096000FF90EF90DF90CF90BF900C94470481E010
:10097000DF91CF911F910F91FF90EF90DF90CF907B
:10098000BF9008958F929F92AF92BF92CF92DF92C5
:10099000EF92FF920F931F93CF93DF93962E842EA7
:1009A0005901FC01E080F180F701108DC080D180F9
:1009B000C6010E94C703EC01D986C8868C858117C1
:1009C00029F0612FCE010E949A111C878A859B8590
:1009D0008E159F0539F0F701618DCE010E940A1234
:1009E000FB86EA869501482D692DCE010E940214EE
:1009F00081111BC0F701818D1F928F93808D1F92F3
:100A00008F938BE093E09F938F938FE293E09F937C
:100A10008F930E94BF188DB79EB708960FB6F894B3
:100A20009EBF0FBE8DBF80E001C081E0DF91CF91FE
:100A30001F910F91FF90EF90DF90CF90BF90AF90FC
:100A40009F908F900895FB01408151816281738155
:100A5000FC01408351836283738380E008952CE11D
:100A6000FB01DC0101900D922A95E1F780E00895E9
:100A700026E0FB01DC0101900D922A95E1F780E070
:100A8000089528E0FB01DC0101900D922A95E1F721
:100A900080E00895CF93DF93EA01198218820E94C3
:100AA000580D8881998102969983888380E0DF912F
:100AB000CF910895EF92FF920F931F93CF93DF93FF
:100AC0008C017B01EA01198218820E94580D8881ED
:100AD0009981029699838883B7016E5F7F4F800F5B
:100AE000911F0E94580D888199810296998388836D
:100AF000B7016C5F7F4F800F911F0E94580D888156
:100B0000998102969983888380E0DF91CF911F912C
:100B10000F91FF90EF900895EF92FF920F931F9324
:100B2000CF93DF938C017B01EA01198218820E9426
:100B3000580D88819981029699838883B7016E5FE9
:100B40007F4F800F911F0E94580D888199810296D6
:100B500099838883B7016C5F7F4F800F911F0E943C
:100B6000580D8881998102969983888380E0DF916E
:100B7000CF911F910F91FF90EF900895EF92FF9208
:100B80000F931F93CF93DF938C017B01EA01888140
:100B9000998186309105E9F01F9226E02F939F936B
:100BA0008F938BEA94E09F938F9388E593E09F93D4
:100BB0008F9380916A348F93809169348F930E94D0
:100BC000B6778DB79EB70A960FB6F8949EBF0FBE44
:100BD0008DBF19821882B701C8010E94FA0C888162
:100BE0009981029699838883B7016E5F7F4F800F4A
:100BF000911F0E94FA0C88819981029699838883BB
:100C0000B7016C5F7F4F800F911F0E94FA0C8881A3
:100C1000998102969983888380E0DF91CF911F911B
:100C20000F91FF90EF900895CF92DF92EF92FF9295
:100C30000F931F93CF93DF93CDB7DEB767970FB6B0
:100C4000F894DEBF0FBECDBF6C018B017A01FA01B3
:100C50002081318122303105D1F01F9282E08F93C3
:100C60003F932F9327E135E03F932F9328E533E01F
:100C70003F932F9380916A348F93809169348F933F
:100C80000E94B6770FB6F894DEBF0FBECDBFF70156
:100C900011821082B801C6010E94FA0CF70180810E
:100CA0009181029691838083CE0101960E94C60AAB
:100CB0002E89C8010296211110C00E94E314F80188
:100CC000828193810E942710BE016F5F7F4FF801E0
:100CD000828193810E947F170FC00E941215F80134
:100CE000828193810E942710BE016F5F7F4FF801C0
:100CF000828193810E94C11780E067960FB6F894B5
:100D0000DEBF0FBECDBFDF91CF911F910F91FF903E
:100D1000EF90DF90CF900895CF92DF92EF92FF9205
:100D20000F931F93CF93DF93CDB7DEB767970FB6BF
:100D3000F894DEBF0FBECDBF6C018B017A01FA01C2
:100D40008081918186309105D1F01F9226E02F930A
:100D50009F938F9382E894E09F938F9388E593E02D
:100D60009F938F9380916A348F93809169348F938E
:100D70000E94B6770FB6F894DEBF0FBECDBFF70165
:100D800011821082B801C6010E94FA0CF70180811D
:100D90009181029691838083B8016E5F7F4F8C0DA5
:100DA0009D1D0E94FA0CF70180819181029691832A
:100DB0008083B8016C5F7F4F8C0D9D1D0E94FA0CE3
:100DC000F70180819181029691838083CE01019603
:100DD0000E94C60A2E89C8010696211110C00E94E1
:100DE000E314F801868197810E942710BE016F5F8E
:100DF0007F4FF801868197810E947F170FC00E9464
:100E00001215F801868197810E942710BE016F5F3D
:100E10007F4FF801868197810E94C11780E0679615
:100E20000FB6F894DEBF0FBECDBFDF91CF911F91FB
:100E30000F91FF90EF90DF90CF900895EF92FF9287
:100E40000F931F93CF93DF938C017B01EA011982EB
:100E5000188285EF94E09F938F9381E08F9386E8CB
:100E60008F9380E893E09F938F930E94C677888149
:100E70009981B701800F911F0E94580D8881998137
:100E8000029699838883B7016E5F7F4F4AE150E0F5
:100E9000800F911F0E94320D888199814A96998313
:100EA00088830F900F900F900F900F900F9080E01D
:100EB000DF91CF911F910F91FF90EF900895EF92E6
:100EC000FF920F931F93CF93DF938C017B01EA0175
:100ED000288139812C313105E9F01F928CE18F9303
:100EE0003F932F9383ED94E09F938F9388E593E056
:100EF0009F938F9380916A348F93809169348F93FD
:100F00000E94B6778DB79EB70A960FB6F8949EBF2B
:100F10000FBE8DBF19821882B701C8010E94FA0C5A
:100F200088819981029699838883B7016E5F7F4F8C
:100F30004AE150E0800F911F0E94CB0C888199817B
:100F40004A969983888380E0DF91CF911F910F911A
:100F5000FF90EF9008950E94130B833039F021E049
:100F600090E0811101C020E0822F08958BE090E095
:100F70000895CF92DF92EF92FF920F93CF93DF937A
:100F8000EC017B016A0106E024E13AE041E061E026
:100F90000E94C204A601B701CE010E945E0421E0B6
:100FA00030E0811102C020E030E0C901DF91CF9133
:100FB0000F91FF90EF90DF90CF900895AF92BF9286
:100FC000CF92DF92EF92FF920F931F93CF93DF9315
:100FD0007C015B010E948D0DEC016C0188E0C80E64
:100FE000D11C8701E12CF12CEA14FB046CF4B8014C
:100FF000C6010E94D60F8FEFE81AF80A82E0C80EE9
:10100000D11C0C5F1F4FF0CF8AE495E09C838B834B
:1010100084E196E09D8B8C8B81E0888F898F83E2C1
:1010200095E09F8B8E8BCE01DF91CF911F910F9119
:10103000FF90EF90DF90CF90BF90AF900895AF9268
:10104000BF92CF92DF92EF92FF920F931F93CF93B5
:10105000DF937C015B010E948D0DEC016C0188E047
:10106000C80ED11C8701E12CF12CEA14FB046CF4AE
:10107000B801C6010E94D60F8FEFE81AF80A82E085
:10108000C80ED11C045E1F4FF0CF8EE197E09C8309
:101090008B838FE597E09D8B8C8B81E0888F82E03E
:1010A000898F8FE295E09F8B8E8BCE01DF91CF9160
:1010B0001F910F91FF90EF90DF90CF90BF90AF9076
:1010C00008950E945E0421E030E0811102C020E01A
:1010D00030E0C9010895AF92BF92CF92DF92EF92B4
:1010E000FF920F931F93CF93DF937C015B010E94CC
:1010F0008D0DEC016C0188E0C80ED11C8701E12C3C
:10110000F12CEA14FB046CF4B801C6010E94D60F5E
:101110008FEFE81AF80A82E0C80ED11C0A5F1F4F51
:10112000F0CF8AE595E09C838B838EEB95E09D8BD9
:101130008C8B81E0888F83E0898F88E395E09F8B9B
:101140008E8BCE01DF91CF911F910F91FF90EF9089
:10115000DF90CF90BF90AF9008950E94130B833023
:1011600039F021E090E0811101C020E0822F089544
:101170008BE090E00895AF92BF92CF92DF92EF9212
:10118000FF920F931F93CF93DF937C015B010E942B
:101190008D0DEC016C0188E0C80ED11C8701E12C9B
:1011A000F12CEA14FB046CF4B801C6010E94D60FBE
:1011B0008FEFE81AF80A82E0C80ED11C085F1F4FB3
:1011C000F0CF8CE895E09C838B838CE896E09D8B38
:1011D0008C8B81E0888F84E0898F81E495E09F8B00
:1011E0008E8BCE01DF91CF911F910F91FF90EF90E9
:1011F000DF90CF90BF90AF900895CF93DF9300D052
:101200001F92CDB7DEB70E94B31590939C278093B1
:101210009B2765E070E08BEE97E20E94DE079093DB
:1012200098288093972820E030E040E050E060E08C
:1012300070E00E94E40A909306288093052820E03D
:1012400030E040E050E060E070E0809197289091BD
:1012500098280E9487039093082880930728CE013E
:1012600001960E941215811119C189819A810E94EB
:10127000271060E774E089819A810E94C11781116B
:101280000DC169817A8180919728909198280E9458
:101290008915811103C189819A810E94301065E00E
:1012A00070E089E098E20E941F089093E8278093FD
:1012B000E72720E030E040E050E060E070E00E948E
:1012C000E40A90939E2780939D2720E030E040E041
:1012D00050E060E070E08091E7279091E8270E945D
:1012E00087039093042880930328CE0101960E94DF
:1012F00012158111D3C089819A810E94271060E75D
:1013000074E089819A810E94C1178111C7C06981E7
:101310007A818091E7279091E8270E9489158111B1
:10132000BDC089819A810E94301065E070E08FE92C
:1013300097E20E946B0890939A288093992820E066
:1013400030E040E050E060E070E00E94E40A9093FA
:1013500002288093012820E030E040E050E060E087
:1013600070E08091992890919A280E948703909329
:10137000EA278093E927CE0101960E941215811178
:101380008DC089819A810E94271060E774E089816D
:101390009A810E94C117811181C069817A818091EF
:1013A000992890919A280E948915811177C0898186
:1013B0009A810E94301065E070E08FEB97E20E9406
:1013C000BB08909396288093952820E030E040E079
:1013D00050E060E070E00E94E40A9093BE278093A2
:1013E000BD2720E030E040E050E060E070E0809118
:1013F0009528909196280E948703909300288093C7
:10140000FF27CE0101960E941215811147C08981E4
:101410009A810E94271060E774E089819A810E9476
:10142000C11781113BC069817A8180919528909183
:1014300096280E948915811131C089819A810E9464
:101440003010AE014D5F5F4F60E27AE089E794E0D3
:101450000E942213009711F5AE014D5F5F4F6AE1C4
:101460007AE080E794E00E9422130097B9F4AE017D
:101470004D5F5F4F64E17AE080E794E00E942213C1
:10148000009761F4AE014D5F5F4F6EE07AE080E758
:1014900094E00E942213009709F480E00F900F90CF
:1014A0000F90DF91CF910895613029F49FEF980F4D
:1014B00081E0943008F080E00895EF92FF920F935E
:1014C0001F93CF93DF93FC01E0901602F090170278
:1014D000D70154962C912F7084E090E0821B9109E3
:1014E000E70120E030E0281739070CF045C00881FB
:1014F0001981D80159967C91259676133AC0309778
:1015000019F165E0629FC001639F900D1124D7011E
:10151000A80FB91F12966C916F7070E07183608391
:1015200060919B2770919C2773836283A091160220
:10153000B0911702A80FB91F0D90BC91A02D59961C
:101540008C9190E09583848341155105B9F0E09129
:101550001602F091170265E0629FC001639F900D33
:101560001124E80FF91F80819181FA019183808312
:1015700005C02F5F3F4FB7CF81E001C080E0DF9112
:10158000CF911F910F91FF90EF900895DC01809112
:101590003C0A56968C93569780913B0A55968C93AD
:1015A000559785E1E6E2FAE001900D928A95E1F720
:1015B00080E00895E0911602F09117028489807FFF
:1015C0008460848B80E00895A0911602B091170288
:1015D00054964C9154974F7019F124E030E0241B3D
:1015E000310955E0529FF001539FF00D1124EA0F8D
:1015F000FB1F34E0341B3F702281207F232B22838A
:1016000054962C9154973FE0320F3F70207F232B4C
:1016100054962C939183808314821382CF01089572
:1016200080E090E00895EF92FF920F931F93CF9385
:10163000DF9300D000D0CDB7DEB78B011C821B82B8
:10164000DC01ED90FC90BE016D5F7F4FC7010E94F1
:101650008615833079F1F80180819181892BD1F051
:10166000BE016F5F7F4F8B819C810E941F1069813B
:101670007A81D7015696ED91FC915797D8018D91BB
:101680009C91099560E070E08B819C810E94D60F4F
:1016900080E011C08FE395E09F938F9383E795E0FF
:1016A0009F938F930E94EA180F900F900F900F90C6
:1016B00081E001C083E00F900F900F900F90DF91B9
:1016C000CF911F910F91FF90EF9008958091520A52
:1016D0009091530A892B21F01092530A1092520ACA
:1016E00080E00895EF92FF920F931F93CF93DF93C3
:1016F00000D0CDB7DEB78C01FC01E284F384E114A5
:10170000F10429F4C8010E94DA1081E018C062E5F2
:101710007AE0C7010E9483158111F4CFBE016F5F8B
:101720007F4F8091520A9091530A0E941F10498165
:101730005A81F70164897589C8010E94A9120F9026
:101740000F90DF91CF911F910F91FF90EF9008952F
:101750000F931F93CF93DF931F92CDB7DEB78C010A
:10176000862F69830E94AF0D6981811105C060E0F9
:10177000C8010E94181102C0F801648780E00F9030
:10178000DF91CF911F910F910895CF93DF93EC01DB
:10179000862F0E94C80D009729F461E0CE010E94B7
:1017A000181102C09B878A8780E0DF91CF9108954E
:1017B000DF92EF92FF920F931F93CF93DF9300D0AE
:1017C0001F92CDB7DEB78C01009709F49BC00E9431
:1017D0006611882321F0C8010E945E0D93C010920B
:1017E000530A1092520A96E2E92E9AE0F92E25E168
:1017F000D22ED8018C91882309F452C0BE016E5FAD
:101800007F4FC8010E949C108A81813031F1C0F065
:10181000823081F1883009F03FC0D701ED2D1D9253
:10182000EA95E9F710923C0A10923B0A26E23AE068
:101830004CE35AE06BE37AE0C8010E945014D9CF20
:101840000E94660BBE016F5F7F4FC8010E94B011FE
:101850006981C8010E94A80BCCCF0E94660BBE0113
:101860006D5F7F4FC8010E9410126B81C8010E94FA
:10187000C50BBFCF40E050E06B8180E090E00E945C
:101880005D0A811109C00E94660BC8010E94720B9B
:10189000882309F4AECF36C0C8010E94DA10A9CF60
:1018A0000E94660BC8010E945E0DF12C04E010E05E
:1018B00085E0E82E2F2D30E0E0911602F09117021E
:1018C00084898F70A801481B510924173507C4F477
:1018D000E29EC001E39E900D11248E0F9F1FDC013C
:1018E000ED91FC9111973B81218D321307C0139626
:1018F000ED91FC911497309709F00995F394DACFA4
:1019000080E001C081E00F900F900F90DF91CF91A8
:101910001F910F91FF90EF90DF900895640F751F56
:10192000480F591F8417950739F0FC012191CF0109
:10193000FB012293BF01F6CF0895FF920F931F93EF
:10194000CF93DF931F92CDB7DEB7F62E8A0141E029
:1019500050E0BE016F5F7F4F0E948E0C2981822F65
:101960008F7090E06F2D70E08617970731F4229505
:101970002F70F801208380E001C081E00F90DF919B
:10198000CF911F910F91FF90089541E050E00E9488
:101990008E0C80E00895CF92DF92EF92FF920F932A
:1019A0001F93CF93DF936C018B017A01C0E0D0E0ED
:1019B000CE15DF0564F4B8016C0F7D1F41E050E0E7
:1019C000C6018C0F9D1F0E948E0C2196F1CFA7019E
:1019D000F7FE02C040E050E0F801E40FF51F10826E
:1019E00080E0DF91CF911F910F91FF90EF90DF90FA
:1019F000CF90089542E050E00E948E0C80E0089560
:101A0000640F751F480F591F8417950739F0FB01A4
:101A10002291BF01FC012193CF01F6CF0895CF930E
:101A2000DF931F92CDB7DEB720E1429FA0011124C2
:101A3000642B698341E050E0BE016F5F7F4F0E94DD
:101A4000000D80E00F90DF91CF91089541E050E0CC
:101A50000E94000D80E0089541E050E00E94000DDA
:101A600080E00895CF92DF92EF92FF920F931F9341
:101A7000CF93DF937C016B018A01C0E0D0E0C017F7
:101A8000D10764F4B6016C0F7D1F41E050E0C7013F
:101A90008C0F9D1F0E94000D2196F1CF80E0DF91F9
:101AA000CF911F910F91FF90EF90DF90CF9008950D
:101AB00042E050E00E94000D80E00895FC01108299
:101AC0001582178216821186108613861286148656
:101AD00080E008950F931F93CF93DF9300D0CDB78D
:101AE000DEB78C0101960E944D17CE0101960E942F
:101AF0007817F8018181928129813A81820F931FA1
:101B000094838383C8010E945E0D80E00F900F9044
:101B1000DF91CF911F910F9108952091F00A322FFC
:101B20003F70832F90E086309105B4F43F5F3F70A3
:101B3000207F232B2093F00A2AE1289FF001299F80
:101B4000F00D1124EC5AF54FDF011D922A95E9F7AB
:101B5000138A128ACF01089580E090E00895609181
:101B6000F00A6F7070E04CE65AE020E030E0261793
:101B7000370754F4465E5F4FFA017A9790819817C1
:101B800029F02F5F3F4FF3CF80E0089581E0089563
:101B90006091F00A6F7070E04DE65AE020E030E0AE
:101BA000261737079CF4465E5F4FFA017A979081BB
:101BB000981309C04AE1429FC001439F900D112430
:101BC0008C5A954F08952F5F3F4FEACF80E090E009
:101BD0000895AF92BF92CF92DF92EF92FF920F9350
:101BE0001F93CF93DF93CDB7DEB7CA57D1090FB696
:101BF000F894DEBF0FBECDBFEB961FAE1EAEEB97C7
:101C0000BE0167587F4FCE0101960E94E20281110A
:101C10002FC0CE0101967C0100E010E08DE8C82EB7
:101C200085E0D82E9CE7A92E96E0B92EEB968EADD6
:101C30009FADEB9708171907DCF440E050E0B701BF
:101C40008091E9279091EA270E946108892B51F041
:101C5000DF92CF92BF92AF920E94EA180F900F903E
:101C60000F900F900F5F1F4F96E0E90EF11CDECF33
:101C7000C658DF4F0FB6F894DEBF0FBECDBFDF9161
:101C8000CF911F910F91FF90EF90DF90CF90BF9079
:101C9000AF900895CF93DF9300D0CDB7DEB780919A
:101CA0009B2790919C279A83898340E050E0BE0156
:101CB0006F5F7F4F80910728909108280E94B90795
:101CC000892B71F08DEA95E09F938F9388E296E0DF
:101CD0009F938F930E94EA180F900F900F900F9090
:101CE0000F900F90DF91CF9108959F92AF92BF9286
:101CF000CF92DF92EF92FF920F931F93CF93DF93D8
:101D0000CDB7DEB72C970FB6F894DEBF0FBECDBFB0
:101D10009E012F5F3F4F79013A8729876DECC62ED0
:101D200065E0D62E7CE9A72E76E0B72E40E050E0A5
:101D3000BE01675F7F4F80910528909106280E9421
:101D4000AB070B9749F4FC86EB860AEE15E057E5E6
:101D5000E52E56E0F52E89C08A818F9389818F9375
:101D6000DF92CF92BF92AF920E94BF1829813A8131
:101D70000B811C810F900F900F900F900F900F9080
:101D800080919B2790919C2782179307B9F1A7EF29
:101D9000BAE0EFEFFFEF80E090E04D915C9111979A
:101DA0004217530759F1452B29F4EF3F4FEFF40742
:101DB00009F4FC01019614968233910571F7EF3F07
:101DC0008FEFF807D9F0EE0FFF1FEE0FFF1FE9505E
:101DD000F54F3183208313830283B80180919928C2
:101DE00090919A280E948915982E811103C0C801EC
:101DF0000E9430100E94E90D911004C0C8010E9499
:101E0000301094CF9BE0991291CF9DCF8E818F930C
:101E10008D818F938C818F938B818F938A818F9308
:101E200089818F931F930F93FF92EF920E94BF18A7
:101E30001A861986AE01475F5F4F6D8180E090E0A2
:101E40000E9478020FB6F894DEBF0FBECDBF81119D
:101E50001AC0CF80D884B60189859A850E948915D9
:101E6000811111C0C6010E94301040E050E0BE0157
:101E7000655F7F4F8091BD279091BE270E94AD087E
:101E80008B3021F602C08B3081F72C960FB6F89478
:101E9000DEBF0FBECDBFDF91CF911F910F91FF909D
:101EA000EF90DF90CF90BF90AF909F900895E7EFB5
:101EB000FAE01182108234968BE0EF3BF807C9F705
:101EC0000E9488190E9490199093F60A8093F50A4F
:101ED00040E050E065E77EE00E94B71921E040E075
:101EE00050E061E08091F50A9091F60A0E94BE19D7
:101EF000882371F085E196E09F938F9388E496E0C4
:101F00009F938F930E94EA180F900F900F900F905D
:101F10000E9490199093F40A8093F30A40E050E0F5
:101F20006AE47EE00E94B71921E040E050E06AE0F8
:101F30008091F30A9091F40A0E94BE19882371F0EF
:101F400085E196E09F938F9388E496E09F938F932B
:101F50000E94EA180F900F900F900F900E94901916
:101F60009093F20A8093F10A40E050E069EE7DE040
:101F70000E94B71921E040E050E06CE38091F10A43
:101F80009091F20A0E94BE19882371F085E196E0D3
:101F90009F938F9388E496E09F938F930E94EA1813
:101FA0000F900F900F900F9080E0089561157105CC
:101FB00019F0FC017183608380E00895CF93DF9373
:101FC000FC01EB012285838590E0820F911D25E0C5
:101FD00030E0B9010E94B275880F991F8E0F9F1FC4
:101FE000998388838385853018F48F5F838707C042
:101FF000828590E00196B9010E94B275828780E0E7
:10200000DF91CF910895FC0183858823B1F022856B
:10201000CF01820F911D820F911DDB018D939C9347
:10202000828590E0019665E070E00E94B27582873B
:1020300083858150838780E0089583E00895FC01C3
:1020400080819181FB019183808380E008950097D6
:1020500031F0FC0123812E3F10F42F5F238308957C
:10206000009761F0FC012381222311F0215023838A
:10207000FC012381211102C00C9440150895FC013C
:10208000009751F011821082138282818460877FD1
:102090008F7E828380E0089584E008950F931F93DC
:1020A000CF93DF938C01EB01009701F12097F1F0C2
:1020B000BE01C8010E942E17882339F0C8010E9472
:1020C0002710CE010E9430100FC0F801808191814D
:1020D000009711F08C01ECCFF801D183C0831982F5
:1020E0001882CE010E94271080E001C084E0DF91B9
:1020F000CF911F910F9108950F931F93CF93DF936B
:10210000EC018B01009781F06115710569F0B80150
:10211000CE010E942E17811109C00990D881C02DCF
:102120002097A9F781E003C084E001C080E0DF913F
:10213000CF911F910F9108950F931F93CF93DF932A
:102140001F92CDB7DEB78B01FC012581838194817D
:10215000BE016F5F7F4F820F911D0E94C50C898168
:10216000982F9F709F3019F0F80190831CC08295C2
:102170008F70823089F030F4882361F0813081F4EF
:1021800082E10FC0863051F08F3051F0833041F43E
:1021900084E107C081E105C083E103C081E001C0A3
:1021A0008FEFF801808380E00F90DF91CF911F9136
:1021B0000F9108950F931F93CF93DF931F92CDB785
:1021C000DEB78C01FC01258183819481BE016F5FA4
:1021D0007F4F820F911D0E94C50CF80180818150B4
:1021E0008083858131E0380F35839981292F2F70C5
:1021F000243091F02F3039F0223099F492959F706D
:10220000930F95830EC092959F70933039F048F0EC
:10221000963011F081E006C08D5F01C0875FF80144
:10222000858380E00F90DF91CF911F910F910895EA
:10223000FF920F931F93CF93DF931F92CDB7DEB71B
:102240008C01F62EF8018081882349F0BE016F5F72
:102250007F4FC8010E949C1089818F1102C080E0CD
:1022600006C0C8010E94DA10882361F381E00F9054
:10227000DF91CF911F910F91FF9008950F931F93BE
:10228000CF93DF931F92CDB7DEB78C0181E08983B6
:10229000BE016F5F7F4FF801838194810E942C0DF6
:1022A000F80125812F5F258383819481B801820FF6
:1022B000911D0E942C0DF80185818F5F858380E040
:1022C0000F90DF91CF911F910F9108950F931F935E
:1022D000CF93DF931F92CDB7DEB78C01BE016F5F46
:1022E0007F4FFC01838194810E94C50CF8012581F8
:1022F0002F5F25838981813069F483819481B801BE
:10230000820F911D0E94C50CF80185818F5F858326
:1023100080E001C081E00F90DF91CF911F910F917C
:102320000895BC01FC018381948101960E942C0DCB
:1023300080E00895CF93DF93EC01462F2D818B81B0
:102340009C8160E0820F911D0E940F0D8D818F5F37
:102350008D8388818F5F888380E0DF91CF9108959E
:10236000CF93DF93EC01AB012D818B819C8160E0E9
:10237000820F911D0E949D0C8D818F5F8D838881BE
:102380008150888380E0DF91CF910895CF93DF93D0
:10239000EC01462F2D818B819C8161E0820F911D84
:1023A0000E940F0D8D818F5F8D8388818F5F888361
:1023B00080E0DF91CF9108950F931F93CF93DF9328
:1023C0001F92CDB7DEB78C016983FC012581838123
:1023D000948146E06FE0820F911D0E940F0DF8017D
:1023E00025812F5F258383819481BE016F5F7F4F9D
:1023F000820F911D0E94580DF80185818E5F8583A3
:1024000080818F5F808380E00F90DF91CF911F915B
:102410000F910895603110F00C94DC110C94C611EA
:10242000EF92FF920F931F93CF93DF931F92CDB73D
:10243000DEB78C017B01FC01258183819481AB0196
:1024400061E0820F911D0E949D0C813091F5F80191
:10245000258183819481AE014F5F5F4F6FE0820FD2
:10246000911D0E949D0C811122C08981863079F0D6
:102470008FEB96E09F938F9385E097E09F938F93E8
:102480000E94EA180F900F900F900F9010C0F80163
:1024900025812F5F258383819481B701820F911D50
:1024A0000E94FA0CF80185818F5F858302C081E06C
:1024B00008C0F80185818F5F85838081815080838A
:1024C00080E00F90DF91CF911F910F91FF90EF90DF
:1024D00008950F931F93CF93DF9300D0CDB7DEB74E
:1024E0008C01FB01BA011A821982DC0115962C912C
:1024F000159730E02F5F3F4F13968D919C91149765
:10250000AE014F5F5F4F820F931F0995811119C074
:10251000F801258183819481498162E0820F911DB8
:102520000E940F0DD80115968C9115978F5F998198
:10253000890F15968C9315978C918F5F8C9380E003
:1025400001C081E00F900F90DF91CF911F910F910B
:102550000895CF92DF92EF92FF920F931F93CF9344
:10256000DF9300D0CDB7DEB78C017B016A011A8200
:102570001982FC01258183819481AE014F5F5F4FF9
:1025800062E0820F911D0E949D0CF80125812F5F52
:10259000258383819481AE014F5F5F4FB601820F27
:1025A000911DF701099581110AC0F8018581998172
:1025B000890F858380818150808380E001C081E024
:1025C0000F900F90DF91CF911F910F91FF90EF909F
:1025D000DF90CF900895CF93DF93EB01992787FD8C
:1025E0009095A92FB92FC0978733910538F580575B
:1025F0009F4FFC010C94E87518821EC081E01BC03F
:1026000082E019C083E017C084E015C085E013C0E4
:1026100086E011C087E00FC088E00DC089E00BC0E4
:102620008AE009C08BE007C08CE005C08DE003C0E4
:102630008EE001C08FE0888380E001C084E0DF91FC
:10264000CF9108956F927F928F929F92AF92BF9297
:10265000CF92DF92EF92FF920F931F93CF93DF936E
:10266000CDB7DEB72C970FB6F894DEBF0FBECDBF47
:102670008C014B016A01DA011C92FC0101900020DF
:10268000E9F73197E81BF90BCE0101965C018CE06C
:10269000D5011D928A95E9F789EF8E0F8E3010F0E3
:1026A00084E076C0D8018C918F7D8634C9F711966D
:1026B0008C9111978F7D863499F714968C9114978D
:1026C0008A3371F715968C918A3351F77F01FF2475
:1026D000B1E0EB1AF108612C8BE0782E46E0E416AD
:1026E000F1044CF1F801EE0DFF1D80818A3319F4DD
:1026F000872D670C0EC0E3E0E615B8F0B501670D55
:10270000711D0E94EB128111CBCF8FEF870D639467
:102710000DC0962D981B943030F4F501E80FF11D93
:1027200010828150F6CF612C01C0872DF1E0EF1AA5
:10273000F108782ED3CFBE016E5F7F4FD80113967C
:102740008C910E94EB128111ABCFB501F80182810F
:102750000E94EB128111A4CFFE013296B401CE018A
:102760000E969F0121503109D9012C91B0E12B9F88
:10277000900111243081322BDB013D93BD01D60144
:102780002C912F5F2C933296E817F90751F780E0D0
:102790002C960FB6F894DEBF0FBECDBFDF91CF9160
:1027A0001F910F91FF90EF90DF90CF90BF90AF906F
:1027B0009F908F907F906F900895FC0185811F926C
:1027C0008F9384811F928F9383811F928F93828135
:1027D0001F928F9381811F928F9380811F928F937D
:1027E00084EE96E09F938F937F936F930E94297856
:1027F0008DB79EB740960FB6F8949EBF0FBE8DBFA3
:1028000080E00895BF92CF92DF92EF92FF920F93F4
:102810001F93CF93DF931F92CDB7DEB77C01162FA6
:10282000B42E6901FC01258183819481402F68E0E9
:10283000820F911D0E940F0DF70125812F5F2583C7
:1028400090819F5F9083F0E1BF9EC0011124812B96
:102850008983F70183819481BE016F5F7F4F820F6F
:10286000911D0E94260DF70125812F5F2583402FA2
:1028700050E083819481B601820F911D0E94320D38
:10288000F7018581800F858380E00F90DF91CF91E4
:102890001F910F91FF90EF90DF90CF90BF90089520
:1028A000AF92BF92CF92DF92EF92FF920F931F935E
:1028B000CF93DF93CDB7DEB728970FB6F894DEBF7E
:1028C0000FBECDBF8C017B015A016901FC0125813E
:1028D00083819481BE01685F7F4F820F911D0E94AA
:1028E000C50C888582958F708887F80125812F5FB8
:1028F000258383819481BE01695F7F4F820F911D83
:102900000E94C50C8F81982F9F70F701908382954C
:102910008F70F5018083F80125812F5F2583F701F2
:102920008081811107C0B601F801808591850E94E0
:10293000771816C0488550E0F80183819481BE0164
:102940006F5F7F4F820F911D0E94CB0CF801858134
:102950009885890F8583B601CE0101960E94DD130B
:10296000F80180818150808380E028960FB6F8942A
:10297000DEBF0FBECDBFDF91CF911F910F91FF90B2
:10298000EF90DF90CF90BF90AF9008950F931F937B
:10299000CF93DF9384E18093E70BCFEBDBE08E01F5
:1029A000CE010E9496172296F801808191810E94A3
:1029B0003F10FBE0C73EDF0791F780E0DF91CF914A
:1029C0001F910F910895CF93DF93EC018091E70B56
:1029D000882321F181508093E70B19821882EFEB55
:1029E000FBE0A191B19113968C911397811103C0D3
:1029F000B983A88308C08BE0E73EF80791F784E12C
:102A000097E00E94FC77E881F98182818C7F828344
:102A1000E881F9811182108280E001C086E0DF91B7
:102A2000CF910895CF93DF93FC018091E70B88232A
:102A300019F181508093E70B11821082AFEBBBE05C
:102A4000CD91DD918B81811103C0D183C08304C0FE
:102A50008BE0A73EB807A1F7A081B18112968C91B7
:102A600012978C7F816012968C930190F081E02DFB
:102A70001182108280E001C086E0DF91CF9108953D
:102A8000FC012381222311F021502383FC012381A7
:102A9000211107C00E943F108091E70B8F5F809348
:102AA000E70B80E00895CF92DF92EF92FF920F93B1
:102AB0001F93CF93DF936C017B010FEB1BE0C0E012
:102AC000D0E0F801619171918F01C6010E942E172B
:102AD000882359F0CC0FDD1FC154D44F88819981D0
:102AE000F7019183808380E005C02196C431D10530
:102AF00041F781E0DF91CF911F910F91FF90EF900F
:102B0000DF90CF90089508960C94DE0F08960C94F1
:102B100003100F931F93CF93DF93EB010097D9F02E
:102B20002097C9F0FC01008111810115110531F4D4
:102B300071836083CB010E9427100FC0C8010E94DF
:102B40007C10882351F0BE01C801DF91CF911F9105
:102B50000F910C944E1084E001C080E0DF91CF9182
:102B60001F910F910895CF92DF92EF92FF920F93F2
:102B70001F93CF93DF93C5E0DBE200E010E088E233
:102B8000E82E87E0F82E9AE5C92E97E0D92E8881A5
:102B9000882399F08F8598890E94BA3C8C011F93F5
:102BA0008F93FF92EF92DF92CF920E94BF180F9007
:102BB0000F900F900F900F900F906C968BE2C5378F
:102BC000D80729F7E801DF70D061DF93CF9381E464
:102BD00097E09F938F938AE597E09F938F930E944E
:102BE000BF180F900F900F900F900F900F90CE0185
:102BF000DF91CF911F910F91FF90EF90DF90CF90D9
:102C00000895AF92BF92CF92DF92EF92FF920F930F
:102C10001F93CF93DF93CDB7DEB768970FB6F894C5
:102C2000DEBF0FBECDBF5B018A0188EE9BE00E9434
:102C30005E0DC114D10419F1E091E90BF091EA0B9A
:102C4000808191818C159D05D0F49F938F93DF92A5
:102C5000CF928FE697E09F938F930E94C67782E88A
:102C600097E09F938F9383EB98E09F938F930E94BD
:102C7000EA180FB6F894DEBF0FBECDBF53C0A60151
:102C8000B7018091EB0B9091EC0B0E94947780E15F
:102C9000F501DE01159601900D928A95E1F71E8BE4
:102CA0000D8BBE01695E7F4FCE0101960E945315C8
:102CB000882311F1CE0147960E94E314882379F00E
:102CC0008AEA97E09F938F9383EB98E09F938F938B
:102CD0000E94EA180F900F900F900F9023C08F89D9
:102CE000988D20E1F501DC01149601900D922A9552
:102CF000E1F7FC01158B048B8F89988D0E942710BA
:102D0000EF89F88D82818B7F80618283F093F10B54
:102D1000E093F00B88EE9BE00E94D80B8F89988D92
:102D20000E94301068960FB6F894DEBF0FBECDBF7C
:102D3000DF91CF911F910F91FF90EF90DF90CF9097
:102D4000BF90AF9008953F924F925F926F927F92A3
:102D50008F929F92AF92BF92CF92DF92EF92FF92AB
:102D60000F931F93CF93DF93CDB7DEB760970FB666
:102D7000F894DEBF0FBECDBF6C01FC01E084F1848E
:102D800020E1322E3CEC432E37E0532E46EA642EEF
:102D900048E0742EE114F10409F447C0F701828180
:102DA0008370813049F4A090B528B090B62896ED94
:102DB000892E9AE5992E0AC0811108C0A090D128C9
:102DC000B090D22882EC882E8AE5982EF7013496AE
:102DD000DE011196832D01900D928A95E1F7DF9225
:102DE000CF92F70183891F928F93F60185811F92FD
:102DF0008F935F924F927F926F920E94BF18182D0F
:102E0000092DF601458150E0638174819E012F5F99
:102E10003F4FC5010E941B4CF701E080F1800FB6C7
:102E2000F894DEBF0FBECDBFB5CF80E060960FB681
:102E3000F894DEBF0FBECDBFDF91CF911F910F91F0
:102E4000FF90EF90DF90CF90BF90AF909F908F90CA
:102E50007F906F905F904F903F9008950F931F93D6
:102E6000CF93DF938C01EB016C5F7F4F40E150E02B
:102E700004960E948777892B49F481E0F801448900
:102E800055892C893D894217530709F080E08170EC
:102E9000DF91CF911F910F910895CF93DF93EC01B4
:102EA00082E890E00E941619FC01998388830097BC
:102EB00081F485EF97E09F938F9381E998E09F934A
:102EC0008F930E94EA180F900F900F900F9082E05E
:102ED0000CC082E8DF011D928A95E9F7E881F9814B
:102EE00080E890E09183808380E0DF91CF91089526
:102EF00022E030E0FC013183208380E00895CF930D
:102F0000DF93EC01CB01209769F0009759F0BE01E7
:102F10006C5F7F4F0E9485508AE592EC9D8B8C8B75
:102F200080E001C084E0DF91CF910895CF93DF93DB
:102F3000EC0186E190E00E941619FC01009779F0FF
:102F4000118210829983888382818C7F82836DE0D5
:102F500078E088819981DF91CF910C947F1785EF7C
:102F600097E09F938F938BE798E09F938F930E94B6
:102F7000EA180F900F900F900F9082E0DF91CF91A1
:102F80000895CF93DF93EC01CB01209769F0009770
:102F900059F0BE016C5F7F4F0E9485508AE596ED27
:102FA0009D8B8C8B80E001C084E0DF91CF910895F0
:102FB000CF93DF93CDB7DEB760970FB6F894DEBF3F
:102FC0000FBECDBFBE016F5F7F4F0E948550CE0107
:102FD00001960E94902C892BC9F080EA91E09F9382
:102FE0008F930E94D877CE0101960E94492D0196B9
:102FF0000E9420518EE991E09F938F930E94D87791
:103000000F900F900F900F9080E001C081E06096CC
:103010000FB6F894DEBF0FBECDBFDF91CF910895FC
:10302000CF93DF93CDB7DEB760970FB6F894DEBFCE
:103030000FBECDBFBE016F5F7F4F85E298E00E945B
:10304000855060E97CE2CE0101960E94CF2D21E0FF
:1030500040E050E0BA01CE0101960E94C22C89E7FF
:1030600094E00E94D817882321F08DE298E00E9416
:10307000FC7780E794E00E94D817882321F08DE246
:1030800098E00E94FC7780E060960FB6F894DEBF6F
:103090000FBECDBFDF91CF9108950F931F9388EEA0
:1030A0009BE00E946A0D01E016E120E030E040E084
:1030B00050E062EC7AE589EB98E20E942850019793
:1030C00011F081E011C001E016E120E030E040E0C5
:1030D00050E066ED7AE58DE998E20E94285001976C
:1030E00081F70E94101880E01F910F910895FC0154
:1030F00083891F928F9382891F928F9381891F9258
:103100008F9380891F928F9387851F928F938685D7
:103110001F928F9385851F928F9384851F928F9323
:1031200083851F928F9382851F928F9381851F9233
:103130008F9380851F928F9387811F928F938681B3
:103140001F928F9385811F928F9384811F928F93FB
:1031500083E398E09F938F937F936F930E942978E6
:103160008DB79EB784960FB6F8949EBF0FBE8DBFE5
:1031700080E008959093F60B8093F50B08950F93DC
:103180001F93CF93DF93CDB7DEB72F813885809122
:10319000F50B9091F60B18161906BCF009851A85E7
:1031A0003F932F9327EC31E03F932F930E94D877E2
:1031B00069E070E06C0F7D1F6E5F7F4FC8010E9459
:1031C00058780F900F900F900F90DF91CF911F9133
:1031D0000F9108950F931F93CF93DF93CDB7DEB771
:1031E0002F8138858091F50B9091F60B0497BCF4F4
:1031F00009851A853F932F9328EB31E03F932F9356
:103200000E94D87769E070E06C0F7D1F6E5F7F4F82
:10321000C8010E9458780F900F900F900F90DF9187
:10322000CF911F910F91089580E008950C9404763A
:10323000CF92DF92EF92FF920F931F93CF93DF9382
:103240007C01FC0180819181009749F0803A9105D1
:1032500009F44DC0F7011182108283E050C00E9432
:1032600000280E94A21E60E870E087EF9BE00E94A9
:10327000C427C091FF0BD091000C00E010E0209714
:1032800031F1CE010E94E227892B59F0E885F985BA
:103290008A859B8509958C85813019F4CE010E9421
:1032A000CE27CE010E94ED276C010E94A21E96013E
:1032B000281B390BC9010115110521F0021713074D
:1032C00008F4C8010988DA89C02D8C01D8CF01150E
:1032D000110511F400E810E0B80187EF9BE00E94AF
:1032E000C42780EA90E0F7019183808307C087EFCD
:1032F0009BE00E94E227892B09F0BBCF81E0DF91A0
:10330000CF911F910F91FF90EF90DF90CF90089594
:1033100060E070E088E192E00E94942980E00895E6
:10332000CF93DF93C091FF0BD091000C209761F4F5
:1033300083E190E00E941619FC019093000C8093A9
:10334000FF0B128A118A0FC089899A89009711F0A0
:10335000EC01FACF83E190E00E941619FC01128A79
:10336000118A9A8B898BCF01DF91CF910895FC014F
:10337000718760875387428780E00895FC015687F4
:103380004587F0E86F9FB0011124FC01708B6787BF
:1033900024870E94C42780E00895CF93DF9300D054
:1033A000CDB7DEB70E9414190E94C6140E946903AB
:1033B0000E94DA0A0E944D180E94FD080E94570FD1
:1033C00083E090E00E94BA1865E070E089ED98E231
:1033D0000E94761A9093DF288093DE2820E030E068
:1033E00040E050E060E070E00E9487039093E628A0
:1033F0008093E528CE0101960E94E314811151C00B
:1034000089819A810E9427106DE078E089819A81F4
:103410000E947F17811145C069817A818091DE28E1
:103420009091DF280E94891581113BC089819A8182
:103430000E94301065E070E080EE98E20E94D21A9F
:103440009093D6288093D52820E030E040E050E0EB
:1034500060E070E00E9487039093D8288093D7287B
:10346000CE0101960E94E31481111BC089819A81CB
:103470000E9427106DE078E089819A810E947F1771
:1034800081110FC069817A818091D5289091D628C9
:103490000E948915811105C089819A810E9430108E
:1034A00080E00F900F90DF91CF910895FB01208174
:1034B000FC01208380E00895CF93DF93EA01198215
:1034C00018820E94260D88819981019699838883AC
:1034D00080E0DF91CF9108950E945E0421E030E00A
:1034E000811102C020E030E0C9010895AF92BF927F
:1034F000CF92DF92EF92FF920F931F93CF93DF93C0
:103500005C016B010E948D0DEC017C0188E0E80EEE
:10351000F11C00E010E00C151D0564F4B501600F0E
:10352000711FC7010E94D60F0F5F1F4F82E0E80E88
:10353000F11CF1CF8CE59AE19C838B8381E0888F2D
:1035400080E1898F86E59AE19F8B8E8BCE01DF919A
:10355000CF911F910F91FF90EF90DF90CF90BF9090
:10356000AF900895FB012081FC01208380E0089545
:10357000CF93DF93EA01198218820E94260D888179
:10358000998101969983888380E0DF91CF91089596
:103590000E945E0421E030E0811102C020E030E0B2
:1035A000C9010895AF92BF92CF92DF92EF92FF923E
:1035B0000F931F93CF93DF935C016B010E948D0DDE
:1035C000EC017C0188E0E80EF11C00E010E00C1535
:1035D0001D0564F4B501600F711FC7010E94D60F6D
:1035E0000F5F1F4F82E0E80EF11CF1CF88EB9AE1EC
:1035F0009C838B8381E0888F81E1898F82EB9AE1C4
:103600009F8B8E8BCE01DF91CF911F910F91FF90F9
:10361000EF90DF90CF90BF90AF9008957F928F9200
:103620009F92AF92BF92CF92DF92EF92FF920F9351
:103630001F93CF93DF934C01C0E0D0E0712C96ED47
:10364000E92E91E0F92E29EDC22E21E0D22E3BED9C
:10365000A32E31E0B32EF401EC0FFD1F008110E02A
:10366000102F00278181080F111D0115110569F424
:1036700077FC0DC011E0170D71101FC0BF92AF9203
:103680000E94D8770F900F9018C017144CF0CC23DD
:1036900049F0DF92CF920E94D8770F900F9002C02E
:1036A00077247A941F930F93FF92EF920E94D8771A
:1036B0000F900F900F900F90172D2296C031D105CB
:1036C00011F0712EC8CFDF91CF911F910F91FF9014
:1036D000EF90DF90CF90BF90AF909F908F907F90B2
:1036E0000895E6E4F1E03081208190818081829527
:1036F000869586958370307C830F2695269520735A
:10370000820F92959C70890F0895FF920F931F93DB
:10371000CF93DF93CDB7DEB728970FB6F894DEBF0F
:103720000FBECDBF0E94E61F0E94F21F46E068E078
:1037300081E00E94961F81E00E94DD1F0E94921E80
:1037400084B784B784B784B784B7EBE6F4E322E4A4
:1037500032E4318320833A968DB79EB70A97E817F3
:10376000F907B8F382ED98E09F938F938AE193E095
:103770009F938F930E94D8770E94C1290E94F428BA
:1037800060E070E084E492E00E9494290E94682640
:10379000E091EB08F091EC0809950E94711B90E014
:1037A0000E940020CE0101960E94581E0F900F909B
:1037B0000F900F90882341F08AEF92E09F938F93B0
:1037C0000E94D8770F900F9088E0FE013196A0E913
:1037D000BCE201900D928A95E1F7CE0101960E941C
:1037E00015670E948A1E8C010E94861EAE014F5FE3
:1037F0005F4FB8010E94D0220E94D21D0E94BB22BE
:103800000E948E1E0E94B32388851F928F938F8102
:103810001F928F938E811F928F938D811F928F9312
:103820008C811F928F938B811F928F938A811F921D
:103830008F9389811F928F9385ED92E09F938F9351
:103840000E94D8770E949662E0919809F0919909B8
:103850000995E0916F09F09170090995E0912F09A0
:10386000F091300909950E94B523F82E0091A40922
:103870001091A509F80109950FB6F894DEBF0FBEA7
:10388000CDBF892B51F0F8010995BC0180E890E08B
:103890000E949E75162F072F02C010E800E00E94BC
:1038A000B8221F92FF920F931F931F928F938091C4
:1038B00097098F93809196098F9380916E098F93CA
:1038C00080916D098F9383EA92E09F938F930E947A
:1038D000D87786E992E09F938F930E94D87785E806
:1038E00092E09F938F930E94D87760E070E08CE81D
:1038F00092E00E94942985EF92E00E94F5258DE7E1
:1039000092E09F938F930E94D877699A71980FB62F
:10391000F894DEBF0FBECDBF28960FB6F894DEBF79
:103920000FBECDBFDF91CF911F910F91FF900895F2
:103930000E94851B4CE3C42ED12CE12CF12C58E5C0
:10394000852E52E0952EA12CB12C68E1262E62E046
:10395000362E0E9404290E94FE1F8091E728909134
:10396000E828009741F001979093E8288093E72892
:10397000892B09F471984090E9285090EA286090CA
:10398000EB287090EC280E94AE1E4616570668067B
:103990007906F9F20E94AE1E6093E9287093EA2836
:1039A0008093EB289093EC28A70196010E94C6759E
:1039B000672B682B692B11F40E94902A6091E928EB
:1039C0007091EA288091EB289091EC28A501940150
:1039D0000E94C675623071058105910509F0B6C077
:1039E0001F9284E08F93A8E6B2E0BF93AF930E944A
:1039F000D877C5E0DBE20F900F900F900F90888191
:103A0000882361F0CE0101960E940E1BA6E6B2E06B
:103A1000BF93AF930E94D8770F900F906C968BE274
:103A2000C537D80761F71F9284E18F93A1E5B2E013
:103A3000BF93AF930E94D87780916E0290916F02EE
:103A40000E9431643C010F900F900F900F90611411
:103A50007104A9F0C3010E940E1BAFE4B2E0BF9352
:103A6000AF930E94D877B30180916E0290916F025C
:103A70000E9412643C0110E00F900F90E8CF1123D8
:103A800041F086E492E09F938F930E94D8770F9045
:103A90000F901F9214E11F9384E392E09F938F9302
:103AA0000E94D8771F921F9382E292E09F938F9398
:103AB0000E94D8770E94D72FEC018DB79EB7089649
:103AC0000FB6F8949EBF0FBE8DBF11E0209761F135
:103AD000CE0104960E940E1B8C8D1F928F933F92F5
:103AE0002F920E94D877CE010E94C92F0E940E1BF0
:103AF0008F898F938E898F938D898F938C898F93E4
:103B0000A0E1B2E0BF93AF930E94D877CE010E94AC
:103B1000DB2FEC0110E08DB79EB70A960FB6F89434
:103B20009EBF0FBE8DBFD2CF112341F087E092E040
:103B30009F938F930E94D8770F900F908BEF91E017
:103B40009F938F930E94D8770F900F908091E928D0
:103B50009091EA28A091EB28B091EC289370AA27C5
:103B6000BB270397A105B10509F0F3CEEBE6F4E31B
:103B7000808191818234924479F0EB56F443FF9333
:103B8000EF938EED91E09F938F930E94D8770F90E3
:103B90000F900F900F90DDCE3A96E53FB1E4FB0712
:103BA00038F3D7CE1F93CF93DF93CDB7DEB7A0976F
:103BB0000FB6F894DEBF0FBECDBF85E090E00E9447
:103BC000737A182F282F35EF380F303108F0982FDF
:103BD0009095291709F461C085E393E09F938F9333
:103BE0000E94D877EAE7F3E00F900F90DE0111967C
:103BF00084918D93319683E0E238F807C9F7F89401
:103C000048E050E061E270E0CE0101960E94797ACE
:103C1000ECE6F3E0DE01119684918D93319683E01A
:103C2000EA37F807C9F74EE050E063E170E0CE01F3
:103C300001960E94797AE2E6F3E0DE011196849122
:103C40008D93319683E0EC36F807C9F74AE050E0EF
:103C500069E070E0CE0101960E94797A6DEC7BEA12
:103C600083E090E00E94917A60E070E081E090E073
:103C70000E94917A60E080E090E00E94837A60E0A8
:103C800070E087E090E00E94917A1AE16AE175EEB7
:103C900085E090E00E94917A7894812FA0960FB6EB
:103CA000F894DEBF0FBECDBFDF91CF911F91089575
:103CB0000F931F93CF93DF93CDB7DEB728970FB63F
:103CC000F894DEBF0FBECDBF8C01F89448E050E001
:103CD00060E070E0CE0101960E945B7A7894DE018C
:103CE0001996F801CE0101962E912193A817B907D4
:103CF000D9F7789480E028960FB6F894DEBF0FBE0F
:103D0000CDBFDF91CF911F910F91089583E090E097
:103D10000C94737A81E090E00C94737A80E090E0E8
:103D20000C946B7AF8941092B60016BC83EF87BDA2
:103D300082E084BD94E095BD95B395BB80936E0001
:103D4000789408958091020C9091030C2091020CBC
:103D50003091030C82179307A9F708950F931F93CF
:103D60006091F5287091F6288091F7289091F828B5
:103D70000091F5281091F6282091F7283091F82825
:103D8000601771078207930759F71F910F910895E4
:103D90001F920F920FB60F9211240BB60F922F9312
:103DA0003F934F935F936F937F938F939F93AF93C3
:103DB000BF93EF93FF938091020C9091030C0196B7
:103DC0009093030C8093020C8091020C9091030C51
:103DD0008F779927892B99F48091F5289091F6286F
:103DE000A091F728B091F8280196A11DB11D8093EC
:103DF000F5289093F628A093F728B093F82880919F
:103E0000942A8823E1F08091010C8F5F8093010C4C
:103E100087FF15C01092010C8091ED289091EE283B
:103E2000A091EF28B091F0280196A11DB11D8093BB
:103E3000ED289093EE28A093EF28B093F0280E94ED
:103E4000F527892B11F00E940E27FF91EF91BF916A
:103E5000AF919F918F917F916F915F914F913F9122
:103E60002F910F900BBE0F900FBE0F901F901895C3
:103E70001F920F920FB60F9211240BB60F922F9331
:103E80003F934F935F936F937F938F939F93AF93E2
:103E9000BF93EF93FF938091C600E091FB28F091D0
:103EA000FC28309709F00995FF91EF91BF91AF91F0
:103EB0009F918F917F916F915F914F913F912F9142
:103EC0000F900BBE0F900FBE0F901F9018951F9272
:103ED0000F920FB60F9211240BB60F922F933F93B0
:103EE0004F935F936F937F938F939F93AF93BF9302
:103EF000EF93FF938091CE00E091F928F091FA289A
:103F0000309709F00995FF91EF91BF91AF919F9183
:103F10008F917F916F915F914F913F912F910F9072
:103F20000BBE0F900FBE0F901F90189581110EC001
:103F30001092C5006093C40088E98093C10040934B
:103F4000C2001092FC281092FB280895813069F479
:103F50001092CD006093CC0088E98093C900409313
:103F6000CA001092FA281092F9280895811107C00A
:103F70008091C00085FFFCCF6093C600089581301A
:103F800031F48091C80085FFFCCF6093CE00089586
:103F9000CF93C82F8A3031F46DE08091040C0E94D9
:103FA000B61F02C08D3029F06C2F8091040C0E9446
:103FB000B61F80E090E0CF9108958093040C82E2D8
:103FC00092E09093683480936734089584B7877F34
:103FD00084BF88E10FB6F89480936000109260006F
:103FE0000FBE08952FE088E190E00FB6F894A895F1
:103FF000809360000FBE209360000895A8950895F7
:104000000C947C770C94787781E090E0089581E0BF
:1040100090E0089581E090E0089581E090E00895B7
:104020008091022990E008958091390181FF09C0B3
:10403000809139018D7F809339018DE090E0019767
:10404000F1F723E040E06FE182E491E00E94132564
:1040500083E090E00197F1F708959091390191FD87
:104060000AC0282F803108F02FE040E06FE085E49F
:1040700091E00C94132508958091390181FD10C0C1
:1040800040E06FE181E491E00E9409258F3131F039
:10409000982F9F7E915081E0923018F480E008952F
:1040A00081E008958091390181FD04C00E943C2087
:1040B0008823C1F308958091390181FD0EC040E04D
:1040C0006FE181E491E00E940925282F2F7E81E095
:1040D00090E0213021F080E0089580E090E00895A4
:1040E0001092942A8091390181FD8CC071980E94B0
:1040F00052208091390181FD85C00E941420809159
:1041000039018260809339018091CC2A8823D9F1CA
:1041100080919400909195004091DD2A5091DE2A83
:1041200084179507A0F48091A92A9091AA2AA091BA
:10413000AB2AB091AC2A8C57914EAF4FBF4F8093B2
:10414000A92A9093AA2AA093AB2AB093AC2A2091D3
:10415000940030919500241B350B8091A92A9091F1
:10416000AA2AA091AB2AB091AC2A820F931FA11D5D
:10417000B11D8093A92A9093AA2AA093AB2AB09349
:10418000AC2A1092CC2A8091CE2A8823D9F1809132
:104190009400909195004091E12A5091E22A841771
:1041A0009507A0F48091B12A9091B22AA091B32AE8
:1041B000B091B42A8C57914EAF4FBF4F8093B12A24
:1041C0009093B22AA093B32AB093B42A209194007A
:1041D00030919500241B350B8091B12A9091B22A21
:1041E000A091B32AB091B42A820F931FA11DB11DD3
:1041F0008093B12A9093B22AA093B32AB093B42AA1
:104200001092CE2A08958091942A882321F00E944A
:104210003C200E94702080E090E00895AB0122E0F5
:10422000260F27FF0CC08091922A9091932A019625
:104230009093932A8093922A8FEF9FEF0895BC0169
:1042400085E09CE00E94947780E090E0089540E053
:104250006FE181E491E00C940925CF93DF93C82F9F
:1042600088EF8C0F823038F08C2F8F7E863019F0DB
:10427000C93109F048C08091390181FD47C00E94D1
:1042800052200E942721D82FC817D1F1C83029F415
:10429000809139010E94142024C0C93119F486315B
:1042A00081F404C0C63169F4893159F429E040E051
:1042B0006FE182E491E00E941325E3E0F0E03197A2
:1042C000F1F72C2F40E06FE182E491E00E9413258A
:1042D000D83019F4E9E6F1E002C0E3E0F0E031970C
:1042E000F1F70E9427218C1759F0C63029F481304C
:1042F00039F083E490E00CC0C631D9F78131C9F7B9
:1043000080E490E005C082E490E002C084E490E0A4
:10431000DF91CF91089580919400909195009093B2
:10432000E22A8093E12A21E02093CE2A2093942A46
:104330008091390181FF20C0809194009091950077
:104340009093DE2A8093DD2A2093CC2A719A2093C1
:104350008F2A2FB7789480913901809139018D7F10
:104360008093390180E197E230918F2A332319F04D
:1043700001970097C9F72FBF86E10E942D210C9469
:1043800052208091942A811102C00E948B2181E0E9
:1043900090E008950F931F93CF93DF931F92CDB7B3
:1043A000DEB78091942A882361F08091390181FFE2
:1043B00002C080E07CC00E943C208823D1F310E042
:1043C00003C00E94C12111E080919400909195005A
:1043D0009093DC2A8093DB2A01E00093CB2A80E8CB
:1043E0008093550186E00E942D21009303298FB709
:1043F0008983789410924701809103298111FCCF21
:1044000089818FBF9091470181E09E3008F080E064
:10441000082F019586E10E942D211092550180916F
:10442000CB2A8823D9F12091940030919500E09116
:10443000DB2AF091DC2A2E173F07A0F44091A52A31
:104440005091A62A6091A72A7091A82A4C57514EE4
:104450006F4F7F4F4093A52A5093A62A6093A72AB7
:104460007093A82A20919400309195002E1B3F0B49
:104470004091A52A5091A62A6091A72A7091A82A56
:10448000420F531F611D711D4093A52A5093A62A08
:104490006093A72A7093A82A1092CB2A11110E9428
:1044A00003210295069506950370802F817090E098
:1044B0000F90DF91CF911F910F9108958FEF80930F
:1044C0004E0121E044E060EF8CE691E00E9413256C
:1044D00025E041E06EE08CE691E00E94132580E843
:1044E00080936F018091460180936D0121E045E04A
:1044F00060E284E491E00C9413258DEF93E0019742
:10450000F1F70E9408251092092910928B29109228
:104510000D2A1092082910920729E9E3F1E0808121
:104520008E7F808380818D7F808381EC9DE00197E9
:10453000F1F780818160808323E040E06FE182E4D5
:1045400091E00E9413258DEF93E00197F1F78091A0
:104550005D0180915E010E945E2260E070E080E378
:1045600092E00E9494290E948B2181E090E00895BE
:104570008091860C0895CF93DF931F92CDB7DEB75D
:1045800089830E94522089818093860C282F40E0E5
:104590006FE188E491E00F90DF91CF910C941325A7
:1045A000FA018093620190936301609360017093BC
:1045B00061013097C1F0808180936B01818180938C
:1045C0006A0182818093690183818093680184817B
:1045D0008093670185818093660186818093650160
:1045E000878180936401089580E392E00E94B52959
:1045F00081E08093022980910429909105290196F8
:10460000909305298093042981E090E008951F93F9
:10461000CF93DF932091082912E8129F9001112473
:10462000D901A75FB64D4C91442309F450C047FD12
:1046300008C0433030F050E0EA0122976C177D0744
:1046400010F41C9244C0B901665F764D0E949477C5
:1046500080910829189FF0011124E75FF64DDF01D2
:10466000A058BF4F9C919093FD2810828F5F83309C
:1046700018F48093082902C010920829E0910829B3
:1046800082E8E89FF0011124E75FF64D80818823DE
:1046900019F00E94F42202C0109202298091470171
:1046A0008093FE2890910129992311F0891710F425
:1046B000809301296091FE2870E084E00E94D56615
:1046C0006091FD2870E083E00E94D56602C0C0E0E2
:1046D000D0E0CE01DF91CF911F9108950F931F93EA
:1046E000CF93DF931F92CDB7DEB78C01FC018081A1
:1046F0009181009709F18F34954029F0F8011182DA
:10470000108283E02AC06238E1F40E9471668FB79C
:104710008983F8940E941A6660E870E00E9407237B
:1047200029812FBF1816190674F40E941566E091AE
:104730009E09F0919F0909958FE495E0F801918316
:10474000808381E00AC08091FF2890910029019622
:10475000909300298093FF28EFCF0F90DF91CF91A6
:104760001F910F9108950C942D208091390181FDA6
:1047700006C040E06FE085E491E00C94092580E1FB
:104780000895CF92DF92FF921F93CF93DF931F92F2
:10479000CDB7DEB7F82E8091390181FD07C00E94A8
:1047A00052208091942A811120C05EC08091940093
:1047B000909195009093DE2A8093DD2A81E080938A
:1047C000CC2A719A80938F2A809139018D7F8093B2
:1047D000390120E137E280918F2A882301F32150AB
:1047E000310921153105B9F7DACF8091CE2A882316
:1047F000D9F120919400309195008091E12A909117
:10480000E22A28173907A0F44091B12A5091B22A20
:104810006091B32A7091B42A4C57514E6F4F7F4F1D
:104820004093B12A5093B22A6093B32A7093B42A6A
:104830002091940030919500281B390B4091B12AAA
:104840005091B22A6091B32A7091B42A420F531F3B
:10485000611D711D4093B12A5093B22A6093B32A0F
:104860007093B42A1092CE2A89E10E942D2186E00D
:104870000E94E066892B51F00E94B523C82E86E085
:104880000E94E06681500E942D2002C0C12CD12CD4
:1048900080919400909195009093E02A8093DF2A74
:1048A00081E08093CD2A8FB78983F8948091390174
:1048B000826080933901809139018D7F8093390125
:1048C00062E06F0D85E09CE00E94582589818FBFD2
:1048D0002091902A3091912A2F5F3F4F3093912A57
:1048E0002093902A0E94522045E060EE82E491E0FD
:1048F0000E940925182F86E00E94E066892B19F096
:104900008C2D0E942D208091CD2A8823D9F12091D1
:10491000940030919500E091DF2AF091E02A2E1763
:104920003F07A0F44091AD2A5091AE2A6091AF2A82
:104930007091B02A4C57514E6F4F7F4F4093AD2A24
:104940005093AE2A6093AF2A7093B02A20919400BE
:10495000309195002E1B3F0B4091AD2A5091AE2A0D
:104960006091AF2A7091B02A420F531F611D711DD3
:104970004093AD2A5093AE2A6093AF2A7093B02A29
:104980001092CD2A8091942A882371F0209194006E
:10499000309195003093E22A2093E12A81E08093C0
:1049A000CE2A0E948B2102C00E947020123040F05B
:1049B000133041F0153041F0173039F411E005C0E3
:1049C00010E003C012E001C013E0812F90E00F90CF
:1049D000DF91CF911F91FF90DF90CF900895CF93FB
:1049E000DF93EB010E940E21009729F4CE010E9473
:1049F000C123009751F02091922A3091932A2F5F82
:104A00003F4F3093932A2093922ADF91CF910895BC
:104A10000895FC018081862390E002C095958795DA
:104A20004A95E2F70895CF93DF931F92CDB7DEB793
:104A30003FB73983F894FC015081362F30955323CA
:104A4000042E01C0220F0A94EAF72623522B50832A
:104A500089818FBF0F90DF91CF91089540917B01A5
:104A60002DEF240FFC012D3738F01082E058FF4F56
:104A700010823196108208954193A0E8B1E050E889
:104A8000540F9D012F5F3F4F6C916193521711F0AE
:104A9000D901F7CF4150E42FF0E0E058FE4F2181DB
:104AA000FC01E058FF4F2083319621E020830895D8
:104AB00060938001E1E8F1E061589F012F5F3F4F73
:104AC000DC014D91CD014083621711F0F901F5CF62
:104AD00008951F920F920FB60F9211240BB60F92EA
:104AE0002F933F934F935F936F937F938F939F93F6
:104AF000AF93BF93EF93FF93809147018093FE287C
:104B00008091072922E8829FC0011124875F964D7A
:104B10000E942E25809107298F5F833018F480939F
:104B2000072902C0109207290E94F422FF91EF91F9
:104B3000BF91AF919F918F917F916F915F914F91B5
:104B40003F912F910F900BBE0F900FBE0F901F90B3
:104B500018951F920F920FB60F9211240F900FBE4F
:104B60000F901F9018951F920F920FB60F9211245D
:104B70000F900FBE0F901F9018951F920F920FB6B7
:104B80000F9211240F900FBE0F901F9018951F9237
:104B90000F920FB60F92112410928F2A0F900FBE12
:104BA0000F901F9018951F920F920FB60F9211241D
:104BB000109206290F900FBE0F901F9018951F920C
:104BC0000F920FB60F9211240F900FBE0F901F90EF
:104BD00018951F920F920FB60F921124109203296D
:104BE0000F900FBE0F901F901895CF93DF93EC019D
:104BF00089919991009729F060E070E00E949429D2
:104C0000F7CFDF91CF910895EF92FF920F931F930B
:104C1000CF93DF938C017A01FC0180819181009711
:104C200041F08A34910501F1F8011182108283E08C
:104C300048C088E89CE00E941E2AEC01209751F0B1
:104C40006C817D81CE0102960E94C4270990D88193
:104C5000C02DF4CF81E08093870C8AE490E0F801C6
:104C60009183808381E02DC06838E1F788E89CE07B
:104C70000E941E2AEC01209781F3CE010296E816CD
:104C8000F906D9F4BE0188E89CE00E94322AE0903F
:104C90003A0DF0903B0D8A859B8590933B0D809358
:104CA0003A0DEC85FD85309719F08E859F85099525
:104CB000F0923B0DE0923A0DD0CF0990D881C02DF3
:104CC000DACFDF91CF911F910F91FF90EF90089570
:104CD0001092870C88E89CE00E941A2A60E070E03D
:104CE0008AE392E00C9494290F931F93CF93DF9360
:104CF000EC0100913A0D10913B0D1B870A875D87EF
:104D00004C873F872E878091870C882379F08AE330
:104D100092E090933B0D80933A0DCE0102960E9453
:104D2000C42710933B0D00933A0D02C07D836C8322
:104D3000BE0188E89CE0DF91CF911F910F910C9408
:104D40004D2A0F931F93CF93DF93EC018091870C33
:104D5000882391F000913A0D10913B0D8AE392E087
:104D600090933B0D80933A0DCE0102960E94CE2780
:104D700010933B0D00933A0DBE0188E89CE0DF9153
:104D8000CF911F910F910C944D2ACF93DF93EC019B
:104D90008091870C882329F0CE0102960E940E286C
:104DA00004C01F821E8219861886BE0188E89CE016
:104DB000DF91CF910C94322A80918C0C90918D0CC4
:104DC000892B29F410928B0C10928A0C08950E9462
:104DD000A21EE0918C0CF0918D0C228133814081D8
:104DE0005181240F351F281B390B0480F581E02DDC
:104DF000309769F04281538160817181460F571F5E
:104E0000481B590B4217530780F79A01EECF280F22
:104E1000391F30938B0C20938A0C089584E492E020
:104E20000C94B529EF92FF920F931F93CF93DF93CA
:104E30008C01FC0180819181009799F08935910561
:104E4000D9F0F8011182108283E068C086819781D1
:104E50008417950709F049C00480F581E02D30974B
:104E6000A9F710928D0C10928C0C89E590E0F80156
:104E70009183808381E052C0673891F16238A9F74D
:104E8000C0918C0CD0918D0CE12CF12C209769F302
:104E9000CE010E94022A892BF1F0AE0168E88E81D2
:104EA0009F810E946729892BA1F41F821E828C8119
:104EB0009D81E114F10421F0F7019583848304C0FE
:104EC00090938D0C80938C0C1D821C820E94DC269A
:104ED000D7CF0E940E277E010C80DD81C02DD6CF5A
:104EE000E0918C0CF0918D0CBACFF0938D0CE09387
:104EF0008C0CA481B581109709F4B7CF16968D91CB
:104F00009C9117978417950711F0FD01F2CF149625
:104F10008D919C91159795838483EBCFDF91CF91F1
:104F20001F910F91FF90EF900895CF93DF93EC01C5
:104F30000E940E278E819F8130918C0C20918D0CC8
:104F4000892B91F0E32FF22F309771F0EC17FD07CA
:104F500039F480913A0D90913B0D9783868310C070
:104F60000480F581E02DF0CF80913A0D90913B0DBA
:104F70009F838E833C832D83D0938D0CC0938C0CA8
:104F8000DF91CF910C94DC26CF93DF93EC010E944C
:104F9000E229CE01DF91CF910C949527CF93DF9337
:104FA000EC010E94EE29CE01DF91CF910C94952760
:104FB000CF93DF93EC010E94F829CE01DF91CF91CE
:104FC0000C94952721E030E0FC0186819781892BA4
:104FD00011F020E030E0C9010895FC012281338105
:104FE00080819181820F931F089581E090E020914C
:104FF0008C0C30918D0C232B11F480E090E00895FF
:1050000080918C0C90918D0C892B29F080918A0CC9
:1050100090918B0C089580E090E00895CF93DF93FA
:10502000EC01E0918C0CF0918D0C8E179F0769F4C8
:105030008C819D8190938D0C80938C0C0DC084810C
:1050400095818C179D0721F0FC013097C1F706C0B0
:105050008C819D81958384830E94DC261D821C8225
:105060001F821E82DF91CF9108951F93CF93DF930C
:10507000EC01162FEC81FD813097D1F090933B0D20
:1050800080933A0D82E08887CE010696099599278C
:1050900087FD90950297029710F0133839F4BE01FE
:1050A000CE01DF91CF911F910C94622881E0888717
:1050B000DF91CF911F910895FC01208520FD0C9474
:1050C00035280895CF92DF92EF92FF920F931F93AE
:1050D000CF93DF93EC016B01E0903A0DF0903B0D24
:1050E00000913C0D10913D0DF801EC17FD0739F0D2
:1050F000309709F44AC00190F081E02DF6CF209757
:1051000009F443C08885882309F118860115110523
:1051100061F0C017D10729F0AE0167E8C8010E940D
:105120005C28F80100811181F1CFEC81FD8130977D
:1051300069F0CC15DD0551F0D0933B0DC0933A0DCD
:1051400040E050E063E8CE0106960995E0913C0D01
:10515000F0913D0DCE17DF0769F488819981909316
:105160003D0D80933C0D0DC0808191818C179D0772
:1051700021F0FC013097C1F704C0888199819183A7
:105180008083F0923B0DE0923A0DDF91CF911F9119
:105190000F91FF90EF90DF90CF9008951F93CF93E2
:1051A000DF931092960CC0913C0DD0913D0D11E013
:1051B000209779F08985882341F01887198640E087
:1051C00050E062E8CE010E9435280990D881C02DB8
:1051D000EFCFDF91CF911F9108958091390D91E02C
:1051E000980F9093390D08958AE88093390D1092A5
:1051F000370D1092380D10923D0D10923C0D10920B
:105200003B0D10923A0D08958091960C81110E94E9
:10521000CE287091380D772309F451C0E091370DF5
:105220002E2F30E085E0E89FF0011124E956F34F7E
:1052300060816093950C418152815093940C40930E
:10524000930C838194819093920C8093910C2F5FA7
:105250003F4F2F7133272093370D71507093380DC6
:10526000009731F580913C0D90913D0D9093900CFD
:1052700080938F0C80918F0C9091900C892BF9F07A
:105280008091960C81110E94CE284091930C5091F0
:10529000940C6091950C80918F0C9091900C0E94D1
:1052A0005C28E0918F0CF091900C80819181DECF91
:1052B000613819F421E0FC0120870E945C2880916C
:1052C000960C2091380D90E0820F911D0895209149
:1052D000380D2032B9F0E091370DE20FEF71E09315
:1052E0008E0C35E0E39FF0011124E956F34F608303
:1052F00052834183948383832F5F2093380D80E012
:1053000090E0089581E090E00895CF93DF93C091FD
:105310003A0DD0913B0D0E945C28D0933B0DC09379
:105320003A0DDF91CF910895AB0130913C0D209162
:105330003D0DE32FF22FE817F907B1F0309721F078
:105340000190F081E02DF7CF009771F0FC013083E0
:10535000218390933D0D80933C0D21E0208717829F
:10536000168261E80C9485290895009749F0FC01A4
:1053700020852150223020F421E021872093960CB3
:1053800008950C94CC6880913E0D90913F0D00974C
:10539000C1F010923F0D10923E0DDC0114966D91FC
:1053A0007C9115971296ED91FC9113970995E091D8
:1053B0003E0DF0913F0D309721F0808191810C944A
:1053C000E6680895CF93DF93EC017B836A830E94A4
:1053D000A21E99838883DF91CF910895FC0180817B
:1053E000918122813381820F931F9183808308955D
:1053F000CF93DF93EC010E94A21E99838883DF91F3
:10540000CF910895CF93DF93EC010E94A21E2881D3
:105410003981821B930B9C012F5F3F4F81E090E00D
:105420004A815B814217530710F080E090E0DF91E2
:10543000CF910895FC01118210820895FC018081B2
:1054400091810895DC01ED91FC91309731F08081DC
:105450009181009729F0FC01FACF80E090E0089557
:10546000CF010895DC01ED91FC913097A9F0A0E007
:10547000B0E020813181E617F70741F4109709F475
:10548000DC012D933C931182108208952115310582
:1054900019F0DF01F901EDCF08950F931F93CF931A
:1054A000DF938C01EB010E94322A19821882C80115
:1054B0000E94222A009711F4F80101C0FC01D18357
:1054C000C083DF91CF911F910F9108950F931F9388
:1054D000CF93DF93EC018B010E94322A888199815E
:1054E000F8019183808319830883DF91CF911F9105
:1054F0000F910895DC01ED91FC9180E090E03097F0
:1055000029F001960190F081E02DF9CF08950097E0
:1055100021F0FC0180819181089580E090E0089560
:105520002F923F924F925F926F927F928F929F92B3
:10553000AF92BF92CF92DF92EF92FF920F931F93A1
:10554000CF93DF93CDB7DEB768970FB6F894DEBF81
:105550000FBECDBFE1ECFAE220813181428153815F
:10556000EDEBFAE25080418032802380E1EBFAE2F9
:105570009080818072806380EDEAFAE28081898385
:1055800091819A83A281AB83B381BC83E9EAFAE279
:1055900080818D8391819E83A281AF83B381B887FF
:1055A000E5EAFAE28081898791819A87A281AB87B7
:1055B000B381BC87E1EAFAE280818D8791819E8781
:1055C000A281AF87B381B88BEDE9FAE28081898B44
:1055D00091819A8BB280A380E9E9FAE2F080E180C0
:1055E000D280C380E5E9FAE2A081AF8BB181B88FA8
:1055F000128103812B8B3C8B4D8B5E8B0E94AE1EE8
:105600005E895F934D894F933C893F932B892F93FC
:105610002F923F924F925F926F927F928F929F92C2
:105620002C812F932B812F932A812F9329812F93C4
:1056300028852F932F812F932E812F932D812F93A8
:105640002C852F932B852F932A852F9329852F9394
:1056500028892F932F852F932E852F932D852F9378
:10566000AF92BF922A892F9329892F93CF92DF92ED
:10567000EF92FF920F931F93288D2F932F892F93D3
:105680009F938F937F936F9380915A341F928F9340
:10569000809159341F928F9382E893E09F938F9368
:1056A0000E94D8770FB6F894DEBF0FBECDBF6896C4
:1056B0000FB6F894DEBF0FBECDBFDF91CF911F9123
:1056C0000F91FF90EF90DF90CF90BF90AF909F90A1
:1056D0008F907F906F905F904F903F902F900895A4
:1056E0008F929F92AF92BF92CF92DF92EF92FF92F2
:1056F0000F931F93CF93DF93EC015A014901F701F8
:1057000011821082649F6001659FD00C1124C80E25
:10571000D91E06950695069510E0CC15DD05B0F46A
:105720008881882369F0A801B401CE0101960E9406
:105730008777892B41F4F701D183C08380E00EC0C5
:10574000F701D183C083CA0DDB1DE7CFF70180814C
:105750009181892B11F081E001C082E0DF91CF912E
:105760001F910F91FF90EF90DF90CF90BF90AF907F
:105770009F908F9008953F924F925F926F927F9289
:105780008F929F92AF92BF92CF92DF92EF92FF9251
:105790000F931F93CF93DF93EC01962E342E822E1E
:1057A0002701380180E4E82E8DE0F82E062F9E01B7
:1057B0004CE150E064E080E19CE20E94702B81307B
:1057C00009F5E091400DF091410D8083A091400DCD
:1057D000B091410D80E1FE01119601900D928A95E4
:1057E000E1F7E091400DF091410D918A328A838E6C
:1057F000438A548A658A768AA78AB08EC18ED28EF1
:10580000CF0102C080E090E0DF91CF911F910F9116
:10581000FF90EF90DF90CF90BF90AF909F908F90D0
:105820007F906F905F904F903F9008950F931F93DC
:10583000CF93DF938C0180E19CE29093410D8093A4
:10584000400DC091400DD091410D8CE2C038D80779
:10585000A8F48881882361F0498946954695469544
:1058600050E0B801CE0101960E948777892B41F064
:105870006C96D093410DC093400DE3CF80E001C002
:1058800081E0DF91CF911F910F910895EF92FF92E8
:105890000F9334E4E32E3DE0F32E00E89C014CE14D
:1058A00050E064E085E09BE20E94702B811105C00E
:1058B0008091440D9091450D02C080E090E00F91E1
:1058C000FF90EF90089525E03BE23093450D209343
:1058D000440D282F332727FD3095E091440DF0919A
:1058E000450D9BE2E537F907B0F49081992369F003
:1058F0008F3F29F0418950E04217530731F49181DD
:105900009E3F19F49281903849F07C96F093450DB2
:10591000E093440DE2CF80E090E00895CF01089538
:10592000EF92FF920F93CF93DF93EC0142E4E42ECA
:105930004DE0F42E00E89C0141E150E066E088EA89
:105940009BE20E94702B8130A9F4E091420DF0910E
:10595000430D8083A091420DB091430D80E1FE0183
:10596000119601900D928A95E1F78091420D9091E8
:10597000430D02C080E090E0DF91CF910F91FF9046
:10598000EF9008958F929F92AF92BF92EF92FF9205
:105990000F931F93CF93DF93EC014A015B01122F0A
:1059A00054E4E52E5DE0F52E00E89C014CE150E06A
:1059B00064E085E09BE20E94702B813009F057C0C3
:1059C000E091440DF091450D8083A091440DB0917C
:1059D000450D90E1FE01119601900D929A95E1F727
:1059E000E091440DF091450D128B81149104A104B6
:1059F000B10411F4838B07C0138AB501A401CF0150
:105A000044960E940069E091440DF091450D91E0AB
:105A1000918B8FEF8093460D22E02093470D1092DB
:105A2000490D1092480D10924B0D10924A0D109294
:105A30004D0D10924C0D10924F0D10924E0D109274
:105A4000500D9093510D8093520D8D858093530D81
:105A50008E859F859093550D8093540D86E49DE02F
:105A60000E94902C8091440D9091450D02C080E0E1
:105A700090E0DF91CF911F910F91FF90EF90BF9039
:105A8000AF909F908F900895009711F0FC011082C5
:105A90000895EF92FF920F9362E4E62E6DE0F62EEA
:105AA00000E89C0141E150E066E088EA9BE20E9448
:105AB000702B811105C08091420D9091430D02C061
:105AC00080E090E00F91FF90EF900895CF93DF93E7
:105AD000EC01009799F18FEF8093460D92E090933F
